:020000040800F2
:10000000688D01206D020008BF1E00083718000827
:10001000BD1E0008770400085925000800000000F4
:10002000000000000000000000000000AD0100081A
:100030001D0600080000000009020008F520000865
:10004000870200088702000887020008870200086C
:10005000870200088702000887020008870200085C
:10006000870200088702000887020008870200084C
:10007000870200088702000887020008870200083C
:1000800087020008870200088702000800000000BD
:1000900000000000000000000000000087020008CF
:1000A000870200084524000887020008870200082C
:1000B00087020008870200088702000887020008FC
:1000C00087020008870200088702000887020008EC
:1000D000870200088702000887020008000000006D
:1000E000870200088702000887020008000000005D
:1000F000000000000000000000000000870200086F
:10010000000000008702000887020008870200083C
:1001100000000000000000000000000000000000DF
:1001200087020008870200086D05000887020008A2
:10013000870200080000000000000000000000002E
:10014000000000000000000000000000870200081E
:10015000870200088702000887020008870200085B
:10016000870200088702000800000000000000006D
:10017000000000000000000000000000000000007F
:1001800000000000870200080000000000000000DE
:100190008702000887020008DFF80CD000F02EF973
:1001A00000480047DD090208688D01202C4B1968C2
:1001B0000868B0E8F04F80F30988BFF36F8F4FF005
:1001C000000080F3118870470000000008480068B4
:1001D000006880F308884FF0000080F3148862B64E
:1001E00061B6BFF34F8FBFF36F8F00DF00BF00BF5B
:1001F00008ED00E0DFF80C00016841F470010160D7
:10020000704700BF88ED00E0EFF30980BFF36F8F08
:10021000134B1A681EF0100F08BF20ED108A20E95A
:10022000F04F106009B44FF0500080F31188BFF315
:100230004F8FBFF36F8F25F00BFC4FF0000080F362
:10024000118809BC19680868B0E8F04F1EF0100F5B
:1002500008BFB0EC108A80F30988BFF36F8F704736
:1002600050000020EFF305807047000006488047EB
:1002700006480047FEE7FEE7FEE7FEE7FEE7FEE78B
:10028000FEE7FEE7FEE7FEE7A1210008990100086E
:100290002DE9F05F0546002092469B4688460646BB
:1002A000814640241BE0284641464746224600F04E
:1002B00095F853465A46C01A914110D31146184634
:1002C000224600F07CF82D1A67EB01084F462246C3
:1002D0000120002100F073F817EB00094E41201EA9
:1002E000A4F10104DFDC484631462A464346BDE816
:1002F000F09F10B5431A934209D28318881803E07F
:1003000010F8011D03F8011D521EF9D210BD40EA7C
:1003100001039B0703D009E008C9121F08C0042A83
:10032000FAD203E011F8013B00F8013B521EF9D26A
:1003300010BDD2B201E000F8012B491EFBD270477C
:100340000022F6E710B513460A4604461946FFF7A1
:10035000F0FF204610BD421C10F8011B0029FBD104
:10036000801A704710B5002200E0521C835C8C5C40
:10037000A34201D1002BF8D1D8B2E1B2401A10BD8E
:10038000034611F8012B00F8012B002AF9D1184679
:10039000704730B50B46014600202022012409E0B9
:1003A00021FA02F59D4205D303FA02F5491B04FA2E
:1003B00002F52844151EA2F10102F1DC30BD202A0D
:1003C00004DB203A00FA02F1002070479140C2F1AC
:1003D000200320FA03F3194390407047202A04DBDE
:1003E000203A21FA02F00021704721FA02F3D040AE
:1003F000C2F120029140084319467047064C074D50
:1004000006E0E06840F0010394E8070098471034E4
:10041000AC42F6D3FFF7C4FE4CE702086CE70208D3
:1004200070B58C1810F8015B15F0070301D110F8B6
:10043000013B2A1106D110F8012B03E010F8016BE3
:1004400001F8016B5B1EF9D12B0705D40023521E66
:100450000DD401F8013BFAE710F8013BCB1A921CCE
:1004600003E013F8015B01F8015B521EF9D5A142CC
:10047000D8D3002070BDFEE730B587B014216846A0
:10048000FFF75EFF1348016841F002010160016857
:1004900001F002010591016841F00101016000686D
:1004A0004FF4004400F0010005900120CDE9004028
:1004B00002900320084D03906946284600F036FA62
:1004C00001222146284600F026FB044801F018FAD4
:1004D00007B030BD30380240000002403400002038
:1004E000022000F023B800001CB501A800900423EE
:1004F000032215210C4801F009FB9DF804109DF81A
:10050000050001F00F0140EA0121074808380160A9
:100510009DF807109DF806200F3102F00F0241EA06
:10052000022141601CBD000034000020024615215C
:10053000014801F02FBB00003400002070B50A4DC7
:100540004FF4004400222146284600F0E4FA0A2035
:1005500000F0DAF901222146284600F0DCFABDE875
:100560007040642000F0D0B900000240014800F063
:1005700059B800001C03002001681823CAB2103AC1
:10058000B2FBF3F2054B6FF30901032A9B5CC365D1
:1005900000D9091D8165084670470000C4A0020803
:1005A00010B5014600208B698A6A4FF0C07453B1C0
:1005B000B3F5005F15D072B1012A0CD0022A0AD01F
:1005C000032A09D104E01AB1012A06D0022A03D174
:1005D000C96AC90100D5012010BDC96AA142FAD07B
:1005E00010BD002AF7D0012AF2D0022AF3D0032A44
:1005F000F3D010BD30B50468256825F4802525604A
:10060000046863608368402B036803D099600068C6
:10061000C26030BD9A600068C16030BD704772B67C
:10062000FEE700002DE9F84304464FF00009CDF83D
:10063000009063484FF41651A56D0068B0FBF1F7C8
:100640002E6894F85C10082000FA01F131420FD0B6
:1006500021680A6852070BD50A6822F004020A6072
:1006600094F85C108840A860606D40F001006065FF
:1006700094F85C104FF0010808FA01F0304208D0FD
:1006800021684969090604D5A860606D40F0020040
:10069000606594F85C1004208840304208D02168DE
:1006A0000968890704D5A860606D40F004006065A2
:1006B00094F85C1010208840304218D021680968F6
:1006C000090714D5A86020680168490304D50068AB
:1006D000000308D5A16C07E00168C90503D40168CF
:1006E00021F008010160216C09B12046884794F887
:1006F0005C1020208840304231D021680968C9064A
:100700002DD5A86094F8350005282068016806D02A
:10071000490347D5006800031DD4616C1CE021F03B
:10072000160101602068416921F080014161206C5F
:1007300008B9A06C20B12068016821F008010160AF
:1007400094F85C103F208840A86084F8358084F8D5
:100750003490216D1FE0E16B09B120468847606D40
:1007600000282BD0606DC00714D0052084F8350018
:100770002068016821F0010101600098401C009090
:10078000B84203D820680068C007F6D184F83580E5
:1007900084F83490E16C002910D001B02046BDE807
:1007A000F04308470168C905D5D4016821F010015C
:1007B000016084F8358084F83490CCE7BDE8F88394
:1007C0004C0000202DE9F041044600F0A9F906464E
:1007D0005CB1022084F83500002584F8345020688C
:1007E000016821F0010101600DE00120BDE8F08108
:1007F00000F096F9801B052805D9202060650320AC
:1008000084F83500F2E720680068C007F0D122685C
:10081000116820480140D4E901031843D4E90336A4
:100820003343184363691843A3691843E3691843C2
:10083000236A18430843616A042903D1D4E90B13DE
:1008400019430843106020684069666A20F0070178
:1008500030460E43012704280CD1A06A0643E06A03
:1008600040B12046FFF79CFE20B14020606584F82F
:100870003570BAE7206846612046FFF77DFE94F8A0
:100880005C203F2191408160656584F835700020CF
:10089000ACE700003F8010F02DE9F0410446866D82
:1008A00090F83400002501280DD0012084F8340090
:1008B00094F835700020012F07D084F83400022509
:1008C0002846BDE8F0810220FBE7022784F8357056
:1008D00060652046FFF78EFE94F85C103F2088404C
:1008E000B0602068016841F016010160206C20B101
:1008F0002068016841F0080101602068016841F04A
:1009000001010160DCE7000070B5044600F008F961
:100910000546601C02D004480078044400F000F949
:10092000401BA042FAD370BD400000202DE9F84FD3
:10093000DFF8B8A10022012403254FF00F090AF1C6
:10094000040BAAF1040E00BF0B6804FA02F6334050
:10095000B34273D10F7907F00307012F01D0022FA3
:1009600016D187684FEA420805FA08FC27EA0C0707
:10097000D1F80CC00CFA08FC4CEA070CC0F808C00F
:100980004768B7430E79C6F3001696403E4346606B
:100990000E79F643B6070DD0C768560005FA06FC77
:1009A00027EA0C07D1F808C00CFA06FC4CEA070C41
:1009B000C0F80CC00E7906F00306022E10D1D6083E
:1009C00000EB8608D8F8206057074FEAD76C09FA81
:1009D0000CF7BE430F6907FA0CF73743C8F82070CD
:1009E00006684FEA420C05FA0CF7BE430F7907F090
:1009F000030707FA0CF7374307604E6816F4403FC9
:100A00006DD03B4E376847F480473760366822F038
:100A1000030706F480460096364E07EB060CDCF81A
:100A2000086897073F0F09FA07F826EA0806DFF873
:100A3000C880404503D14FF000081EE04FE0DFF8CA
:100A4000BC80404502D14FF0010816E0DFF8B080CD
:100A5000404502D14FF002080FE0DFF8A880404582
:100A600002D14FF0030808E0DFF89C80404502D136
:100A70004FF0040801E04FF0070808FA07F848EAC9
:100A80000608CCF80888DAF800605746D1F804C0A8
:100A90009E435FEACC2C00D51E433E60DBF800602D
:100AA0005F46D1F804C09E435FEA8C2C00D51E43FC
:100AB0003E60DEF800607746D1F804C09E435FEAEE
:100AC0008C3C00D51E433E60084F083F3E68D1F87D
:100AD00004C09E435FEACC3C00D51E433E60521CDE
:100AE000102AFFF431AFBDE8F88F0000083C014048
:100AF000443802400030014000000240000402403F
:100B000000080240000C024000100240006908404A
:100B100000D0012070470AB1816170470904FBE7EA
:100B2000014880687047000040000020024881684A
:100B30000278114481607047400000200B4810B5D6
:100B4000016841F400710160016841F48061016055
:100B5000016841F480710160032000F08DF80F20DE
:100B600000F006F800F03EF8002010BD003C024006
:100B700010B5014688B00022192000F05DF8192058
:100B800000F04CF813480024016841F001010160B5
:100B9000006805A900F001000690684600F018F909
:100BA00000F036F90C490D4AB0FBF1F10C48491E32
:100BB000026040F2E732C0E90324C0E9011400F00A
:100BC00015FD10B1012008B010BD054800F03CFD36
:100BD000F9E700004438024040420F0000000140A5
:100BE0007C0300200C4882B0016841F48041016020
:100BF000006800F4804000900748001F016841F041
:100C0000805101600068002200F0805000900F21A8
:100C1000901E02B000F010B844380240002809DBF2
:100C200000F01F02012191404009800000F1E02006
:100C3000C0F8001170470000F0B40E4B1B680C4662
:100C4000C3F30223C3F10705042D00D90425191DA0
:100C5000072901D2002300E0DB1E012606FA05F178
:100C6000491E214099409E40761E16403143F0BCFB
:100C700001F088BC0CED00E0064900F007020868AE
:100C80004FF6FF03184040EA0220034A1043086071
:100C9000704700000CED00E00000FA052DE9F04778
:100CA0000E46050065D0DFF81481D8F80000F7B2D1
:100CB00000F00700B04207D288F80070D8F80000B2
:100CC00000F00700B04254D128683D4C810712D58E
:100CD000400703D5206840F4E050206028780007E2
:100CE00003D5206840F4604020602068A96820F0A7
:100CF000F000084320602878C0072DD0304968688C
:100D00000839012812D0022813D0032811D009680D
:100D1000890700292DDA216821F0030101432160B0
:100D2000FFF7FEFE814641F2883A0EE0096889032A
:100D3000EFE709688901ECE7FFF7F2FEA0EB090194
:100D4000514502D90320BDE8F0872068696800F0AA
:100D50000C00B0EB810FEFD1D8F80010404601F045
:100D60000701B14207D90770006800F00700B042E0
:100D700001D00120E7E72878400705D52068E96819
:100D800020F4E050084320602878000706D520684A
:100D9000296920F4604040EAC100206000F048F872
:100DA0002168084AC1F30311515CC8400649086034
:100DB00006480068FFF7DCFE0020C4E7003C024064
:100DC00008380240CCA002084C000020440000205B
:100DD0000F2202600C4A136803F003034360136898
:100DE00003F0F0038360136803F4E053C3601268F8
:100DF0004FF4E05303EAD20202610448006800F0B5
:100E0000070008607047000008380240003C0240BC
:100E10000448054900680968044AC1F34231515C3D
:100E2000C84070474C00002008380240DCA002088F
:100E3000154810B5006810F00C02144813D014497E
:100E4000042A0FD0082A0ED10F4C241F22682368D1
:100E500002F03F025B0207D52068C0F38810A0FBB8
:100E6000010106E0084610BD2168C1F38811A1FB0D
:100E700000010023FFF70CFA2168C1F30141491C6E
:100E80004900B0FBF1F010BD083802400024F40026
:100E900040787D012DE9F84F04006ED02078DFF80E
:100EA0004C93C007A9F104054AD009F10400016878
:100EB000C1F38101012908D00068C0F38100022834
:100EC0000AD1D9F80000400206D52868800337D53A
:100ED00060680028E1D033E06068B0F5803F10D052
:100EE000B0F5A02F286810D020F480302860286842
:100EF00020F4802028606068A8B1FFF711FE064644
:100F00000DE0286840F48030F4E740F48020286049
:100F1000F7E700BFFFF704FE801B642873D828683A
:100F20008003F7D50CE0FFF7FBFD064605E000BFA8
:100F3000FFF7F6FD801B6428F0D828688003F7D4FB
:100F40002078DFF8AC8280074FF0000A3ED5A74832
:100F5000001D016811F00C0F08D00068C0F381007B
:100F600002280BD1D9F80000400207D42868800776
:100F700016D5E068012800D112E033E1E068B8B18D
:100F80000120C8F80000FFF7CBFD064605E000BFD2
:100F9000FFF7C6FD801B0228C0D828688007F7D558
:100FA0002868216920F0F80040EAC10028600DE0BF
:100FB000C8F800A0FFF7B4FD064604E0FFF7B0FD57
:100FC000801B02281FD828688007F7D420780007E4
:100FD00022D5864F87486169703771B10121016060
:100FE000FFF79EFD064604E0FFF79AFD801B0228EE
:100FF00009D838688007F7D50EE0C0F800A0FFF7E1
:101000008FFD064605E082E0FFF78AFD801B02287F
:101010007DD838688007F7D42078400768D5DFF896
:10102000CCB100270BF13C0BDBF80000C0000BD467
:10103000DBF8001041F08051CBF80010DBF8000025
:10104000012700F0805000906B4E3068C00510D42E
:10105000306840F480703060FFF762FD009005E07A
:10106000FFF75EFD0099401A022850D83068C0058D
:10107000F6D55E4EA0686C3601280FD00528306882
:1010800010D020F001003060306820F004003060A3
:10109000A068B8B1FFF744FD00900FE0306840F061
:1010A0000100F4E740F004003060F7E7FFF738FD97
:1010B0000099411A41F28830814266D83068800731
:1010C000F4D50EE0FFF72CFD009007E0FFF728FDB8
:1010D0000099411A41F28830814256D83068800721
:1010E000F4D42FB1DBF8001021F08051CBF80010C0
:1010F000A069C8B33D49091D0968C1F381010229EE
:101100004AD00228504607D0C8F8600000E03CE012
:10111000FFF706FD04463BE04746C8F86000FFF7CE
:10112000FFFC064605E000BFFFF7FAFC801B022823
:101130002BD828688001F7D4D4E907010843A16AB5
:101140002E4A490802EB0141626A41EA82110843D2
:1011500094F82C1040EA0161C9F8001001203866AB
:10116000FFF7DEFC044606E03EE000BFFFF7D8FCD8
:10117000001B022809D828688001F7D534E000BF99
:10118000FFF7CEFC001B022802D90320BDE8F88F30
:1011900028688001F4D427E00128F7D0D9F80000AE
:1011A000E26900F4800191421CD1226A00F03F0103
:1011B000914217D147F6C071626A0140B1EB821FBC
:1011C00010D1A26A4FF0FF3300F4403103EB52021A
:1011D000B1EB024F06D194F82C1000F07060B0EB28
:1011E000016F01D00120D1E70020CFE70438024091
:1011F00000004742800E4742007000400000FFFFA1
:10120000704770B5040009D0606A002540B12561BF
:101210006561A56294F8510040B10CE0012070BDF9
:101220006068B0F5827FF4D0E561F2E784F8505051
:10123000204600F045F8022084F85100206801683B
:1012400021F040010160A088218900F4827001F43E
:1012500004410843A18901F400610843217C01F0A5
:1012600002010843217D01F001010843218B01F4B3
:1012700000710843217F01F03801084394F82010E1
:1012800001F080010843218D01F4005108432168D9
:101290000860A069042101EA104094F8241001F0CC
:1012A00010010843216848602068C16921F4006189
:1012B000C1616565012084F85100002070BD000007
:1012C00070B586B0064614216846FFF739F8204904
:1012D000306888423AD11F480025016841F48051A6
:1012E0000160006800F4805005901A4814380168C5
:1012F00041F0020101600068694600F002000590BB
:10130000282000900220CDE901050320039005204C
:1013100004901148FFF70AFB114C104820604FF071
:10132000806060604020C4E9020500012061400047
:1013300060618000C4E90605256220466562FFF70A
:1013400041FA08B1FFF76BF9B464A66306B070BD4B
:101350000030014044380240000402404064024032
:101360001C0300202DE9F84F044690F85000002798
:101370001D461646894601280DD04FF0010B84F812
:1013800050B0FFF7CDFB804694F85100BA460128D3
:1013900004D0022793E00220BDE8F88FB9F1000FD6
:1013A00073D0002E71D0032084F85100C4F854A0EB
:1013B000C4F83090A686E686C4F838A0A4F83CA00D
:1013C000A4F83EA0C4F844A0C4F840A0A068B0F5BA
:1013D000004F09D12068016821F0400101602068B8
:1013E000016841F48041016020680168490603D426
:1013F000016841F040010160E068B0F5006F60688D
:1014000003D030B3012E24D041E008B1012E1CD10D
:10141000206B21680088C86006E020688168890721
:1014200009D5216B0988C160206B801C2063E08E88
:10143000401EE08609E0FFF773FBA0EB0800A8421E
:1014400002D3681C01D031E07DB3E08E0028E4D1E6
:1014500020E0206B21680078087306E0206881682E
:10146000890709D5216B09780173206B401C206323
:10147000E08E401EE0860AE0FFF752FBA0EB08007A
:10148000A84203D3681C02D010E017E06DB1E08ED3
:101490000028E3D142462946204600F09FFD08B1CE
:1014A00020206065A06818B106E0FFE7032706E08A
:1014B0002068C16880680090606D00B1012784F8E1
:1014C00051B084F850A0384666E700002DE9F0419D
:1014D000044690F850000026012809D0012784F81E
:1014E000507094F851000025012804D002264EE0E7
:1014F0000220BDE8F08189B182B1032084F8510057
:1015000065652163A286E286A56365642564A58777
:10151000E587A068B0F5004F02D00BE0012636E069
:101520002068016821F0400101602068016841F4F1
:1015300080410160A16C18480864A16C1748C86319
:10154000A16C1748C864A06C0565E38E2268216B06
:101550000C32A06CFFF7A0F938B1606D40F01000BC
:101560006065012684F8517011E020680168490621
:1015700003D4016841F0400101602068416841F0F6
:10158000200141602068416841F00201416084F817
:1015900050503046ADE700006D1F0008771F00086F
:1015A0004B1F0008704770474FF0E021042808697E
:1015B00003D020F004000861704740F00400FAE70F
:1015C00010B5401EB0F1807F01D3012010BD4FF057
:1015D000E02460610F21601700F0D4FF0020A061BB
:1015E00007202061002010BD7047704710B504002F
:1015F00003D094F83D0010B107E0012010BD002099
:1016000084F83C00204600F01EF8022084F83D00DB
:10161000211D206800F01CFF012084F8460084F89A
:101620003E0084F83F0084F8400084F8410084F8CC
:10163000420084F8430084F8440084F8450084F8AC
:101640003D00002010BD704790F83D10012901D0E9
:1016500001207047022180F83D100168CA6842F0FD
:101660000102CA6000680E4988420ED0B0F1804F76
:101670000BD00C49884208D00B49884205D00B4951
:10168000884202D00A49884204D1816801F00701EA
:10169000062903D0016841F0010101600020704774
:1016A000000001400004004000080040000C004021
:1016B00000400140704770B50446006801694FF072
:1016C0000005C943890715D4C168C943890711D4E6
:1016D000E91E01610120207720688069800720468B
:1016E00002D0FFF7E7FF04E000F098F8204600F092
:1016F00096F8257720680169C943490717D4C1685E
:10170000C943490713D46FF0040101610220207717
:101710002068806910F4407F204602D0FFF7CAFF9E
:1017200004E000F07BF8204600F079F82577206887
:101730000169C943090716D4C168C943090712D40E
:101740006FF008010161042020772068C0698007DC
:10175000204602D0FFF7AEFF04E000F05FF820461D
:1017600000F05DF8257720680169C943C90617D4E0
:10177000C168C943C90613D46FF010010161082084
:1017800020772068C06910F4407F204602D0FFF720
:1017900091FF04E000F042F8204600F040F8257781
:1017A00020680169C943C90708D1C168C943C9078D
:1017B00004D1891E0161204600F032F820680169D9
:1017C000C943090609D4C168C943090605D46FF0A5
:1017D000800101612046FFF707FF20680169C943C6
:1017E000490609D4C168C943490605D46FF04001D0
:1017F0000161204600F01EF820680169C94389068E
:101800000BD4C168C943890607D46FF02001016178
:101810002046BDE87040FFF7E8BE70BD70477047D6
:1018200000680349884201D1FFF780B97047000082
:10183000000001407047FEE788B000244FF48C7729
:1018400018254FF6FF764FF47A784FF4FA7900BFF7
:1018500024F0F6F804F096FBFEF70EFEFEF76EFE9F
:1018600000F0EAFC00213B46F0220846009400F01C
:10187000F6F90A2004F09CFBCDE90045334618A296
:101880008C214820029400F093FA03200090042356
:10189000022216A103A800F061FECDE900453346FF
:1018A00003AABC212220029400F082FA404604F0F0
:1018B0007FFBBD23F02274210020009400F0CFF9BB
:1018C00016F024F81BF03CFF1BF05EFF24F042FEF4
:1018D000002023F0E7FF48461FF00AFDB8E70000AC
:1018E00057656C636F6D6521000000004F562D57E2
:1018F00061746368205625642E25642E25640000DB
:1019000010B586B0044614216846FEF719FD2089FB
:101910000090012001900290022003906946206807
:10192000FFF704F86089009069466068FEF7FEFFE3
:1019300006B010BD70B506460824002500F0D2FAA6
:1019400013E06806050E0021304600F0B9FA0220C7
:1019500004F03BFB0121304600F0B2FA012004F014
:1019600034FB304600F0B5FA0543641EE4B2E8D219
:101970000021304600F0A4FA304600F0D1FA2846A3
:1019800070BD10B50446002100F0C1FA012004F03A
:101990001CFB0121204600F093FA012004F015FB06
:1019A0000021204600F08CFABDE81040012004F030
:1019B0000CBB000070B50C460646082519E000BFB8
:1019C00000F07EFA022004F000FB04F080013046B3
:1019D00000F09DFA012004F0F8FA6006040E0120E0
:1019E00004F0F3FA0121304600F06AFA012004F015
:1019F000ECFA6D1EEDB24FF000013046E0D200F07F
:101A00005FFABDE87040022004F0DFBA10B504466A
:101A1000012100F07CFA012004F0D7FA01212046D0
:101A200000F04EFA012004F0D0FA0021204600F028
:101A300047FABDE81040022004F0C7BA10B50446CA
:101A4000012100F064FA022004F0BFFA01212046CF
:101A500000F036FA012004F0B8FA0021204600F028
:101A600056FA012004F0B1FA0021204600F028FACD
:101A7000BDE81040012004F0A8BA10B504460021CA
:101A800000F01EFA022004F0A0FA0021204600F027
:101A90003EFA012004F099FA0121204600F010FAE4
:101AA000012004F092FA0121204600F030FABDE84E
:101AB0001040012004F089BA70B50546052400F0F5
:101AC00011FA0121284600F0FBF905E0641EA4B2DA
:101AD000012004F07AFA84B1284600F0FAF90028CF
:101AE000F4D1284600F01CFA0021284600F0E8F95D
:101AF000022004F06AFA002070BD284600F010FAB7
:101B00002846FFF7BAFF012070BD00002DE9F04123
:101B10001D4617460C468046069EFFF78FFF60065F
:101B2000010E4046FFF746FF4046FFF7C5FF28B1CC
:101B30004046FFF7A2FF0120BDE8F081394640464C
:101B4000FFF738FF4046FFF7B7FF4046FFF776FF45
:101B5000012000EB4400C1B24046FFF72BFF404696
:101B6000FFF7AAFF00246F1E0AE000BFFFF7E2FEA6
:101B70003055BC4202DA4046FFF703FF641CE4B272
:101B8000AC424046F2D3FFF741FF4046FFF775FFF6
:101B90000020D1E770B516460C460546FFF74EFF0C
:101BA0006006010E2846FFF705FF2846FFF784FF71
:101BB00031462846FFF7FEFE2846FFF77DFF284600
:101BC000FFF73CFF012000EB4400C1B22846FFF7BD
:101BD000F1FE2846FFF770FF2846FFF7ABFE0446EC
:101BE0002846FFF713FF2846FFF747FF204670BD42
:101BF00070B55D1A141A641C6D1C143314316C43D7
:101C00009BB289B2049E00F0D3FA0D4D4FF40060F0
:101C1000E8602868016841F400610160A2B23146C1
:101C20002846FFF753FC0748006841680029FCD1AB
:101C30000020E8602868016821F40061016070BD3F
:101C4000C40200201C03002010B514460B460246B7
:101C500000F0AEFA2046BDE8104000F0C3BB2DE90D
:101C6000F04780461F4603F1130083B21646501E0C
:101C700082B20C4601F1140081B24046DDF820909A
:101C800000F096FA0AE0454604E0484600F0AAFB58
:101C90006D1CADB2B542F8D3641CA4B2BC42F2D301
:101CA000BDE8F0872DE9FF4F81B00446DDF83C9098
:101CB00000904FEA59074FF00008780700D0012044
:101CC00000EBD70000FB09FB203AD0B2039002984A
:101CD00002994844401E83B2E019401E82B2204659
:101CE00000F066FA002553E0B9F10C0F2AD0B9F1E3
:101CF000100F2ED0B9F1180F2ED0B9F1200F49D105
:101D00002749039801EB8010002610F805A01098D1
:101D100000284FF0010000FA06F000EA0A0022D085
:101D200020B12046049A0299FFF78EFF641C0098A8
:101D3000A4B2201AB84225D10298009C401C80B25F
:101D4000029023E00398174900EB400001EB80006C
:101D5000DAE71549039803E00398144900EB4000C3
:101D600001EB0010D0E708B1049800E00E9800F0F5
:101D700039FB08F10100C0B2B0FBF7F1804607FB68
:101D8000118050B1761CF6B2082EC0D36D1CADB2D6
:101D90005D45A9D305B0BDE8F08F4FF00008F5E729
:101DA000DC830208A86702081C6C02080C72020897
:101DB0002DE9FE4F9946DDE90D6714468A46054632
:101DC000DDF830800CE0CDF800804B4651462846C7
:101DD000CDE90167FFF766FF05EB560085B2641C8D
:101DE0002278002AEFD1BDE8FE8F1EF06DF90120A8
:101DF0001FF07EFAF9E70000094808B5016841F4D0
:101E0000800101600068002200F48000009005213C
:101E10003A20FEF711FFBDE808403A20FEF7FEBE6B
:101E20003038024010B523F049FE044A002104482E
:101E30001FF0C6FA0349086010BD000018670208C9
:101E4000ED20000800000020094808B5016841F0B5
:101E500001010160016801F001010091016841F098
:101E600002010160006800F00200009008BD00005F
:101E700030380240104810B50E4901604FF48271AD
:101E80004160002102228160C0E903120122426107
:101E90005202C0E906210162416281620A21C162E7
:101EA000FFF7AFF9002803D0BDE81040FEF7B7BB3D
:101EB00010BD000000300140C4020020FEE7FEE734
:101EC0004289406811B18169114300E011048161C8
:101ED000704710B501890068FEF718FE012800D090
:101EE000002010BD10B586B0044614216846FEF7E8
:101EF00027FA208900900020019001200290022002
:101F0000039069462068FEF711FD06B010BD0289F6
:101F1000006811B18169114300E0110481617047CB
:101F200010B586B0044614216846FEF709FA2089E8
:101F30000090112001900020029002200390694639
:101F40002068FEF7F3FC06B010BD10B5806B016889
:101F50004A6822F003024A60416D41F01001416578
:101F6000012180F85110FFF74BF910BD10B5806BBF
:101F7000FFF719FB10BD38B50546846BFEF7D0FDA1
:101F8000024628680068C00523D42068416821F013
:101F9000200141602068416821F002014160642114
:101FA000204600F01BF818B1606D40F0200060651D
:101FB000A068002118B92068C26880680090E18696
:101FC000012084F85100606D18B12046FFF718F920
:101FD00038BD2046FFF7E6FA38BD000038B50446A4
:101FE0001248134B0068B0FBF3F04FF47A73584378
:101FF00000906068B0F5827F0DD10B460092002200
:102000008021204600F016F870B1606D40F020008D
:102010006065032038BD009830B1401E00902068F4
:102020008068C0430006F6D5002038BD4C00002073
:1020300000366E012DE9F8431E4691468846044657
:10204000089DFEF76DFD401B351AFEF769FD07463A
:1020500025480068C0F3CB30684338E0701C37D0A7
:10206000FEF75EFDC01BA84203D215B1009860B315
:102070002CE02068416821F0E00141606068B0F523
:10208000827F0BD1A068B0F5004F02D0B0F5806F11
:1020900004D12068016821F040010160A06AB0F518
:1020A000005F09D12068016821F4005101602068B7
:1020B000016841F400510160012084F851000020C2
:1020C00084F850000320BDE8F8830025401E0090EE
:1020D0002068816838EA010004D000214945BDD15B
:1020E0000020F0E70121F9E74C00002001201FF05B
:1020F000FFF8FBE710B54FF0E020006924F032F95B
:10210000012803D0BDE8104023F040BE10BD000000
:1021100030B593B030216846FEF712F914210CA8AF
:10212000FEF70EF91C480024016841F0805101605F
:10213000006800F0805011901848016841F4404157
:1021400001600068022500F44040119001200390D6
:1021500010200490009506950820CDE907406420E2
:10216000CDE9090504200B906846FEF793FE08B1FF
:1021700072B6FEE70F20CDE90C054FF48050CDE993
:102180000E4003210CA81094FEF788FD002801D012
:1021900072B6FEE713B030BD403802400070004018
:1021A0000248016841F470010160704788ED00E069
:1021B0002DE9F04104461D4616460F462A2000F040
:1021C00021F9204600F00EF9304600F00BF92B20E3
:1021D00000F018F9384600F005F9284600F002F939
:1021E000BDE8F0412C2000F00DB9000030B587B0FB
:1021F00014216846FEF7A4F80D48016841F0020179
:102200000160006840F2813400F002000590012076
:10221000CDE900400320074D039069462846FEF7AC
:1022200085FB012221462846FEF775FC07B030BD2C
:10223000303802400004024010B5FFF7D7FF684C69
:1022400000224FF480712046FEF765FC00228021B9
:102250002046FEF760FC6420FEF756FB0122802139
:102260002046FEF758FC6420FEF74EFB112000F0DC
:10227000C9F87820FEF748FB362000F0C3F80020AC
:1022800000F0D6F83A2000F0BDF8052000F0D0F8B4
:10229000B22000F0B7F80C2000F0CAF80C2000F0D3
:1022A000C7F8002000F0C4F8332000F0C1F8332054
:1022B00000F0BEF8B72000F0A5F8352000F0B8F81F
:1022C000BB2000F09FF8192000F0B2F8C02000F009
:1022D00099F82C2000F0ACF8C22000F093F801200F
:1022E00000F0A6F8C32000F08DF8122000F0A0F84E
:1022F000C42000F087F8202000F09AF8C62000F0F3
:1023000081F80F2000F094F8D02000F07BF8A42092
:1023100000F08EF8A12000F08BF8E02000F072F8B9
:10232000D02000F085F8042000F082F80D2000F0A5
:102330007FF8112000F07CF8132000F079F82B20B2
:1023400000F076F83F2000F073F8542000F070F8A9
:102350004C2000F06DF8182000F06AF80D2000F015
:1023600067F80B2000F064F81F2000F061F82320CC
:1023700000F05EF8E12000F045F8D02000F058F8B9
:10238000042000F055F80C2000F052F8112000F065
:102390004FF8132000F04CF82C2000F049F83F20B3
:1023A00000F046F8442000F043F8512000F040F8D7
:1023B0002F2000F03DF81F2000F03AF81F2000F019
:1023C00037F8202000F034F8232000F031F82120E5
:1023D00000F018F8BDE81040292000F013B8000004
:1023E0000004024008B5010A8DF800108DF80100C4
:1023F0000123022269460248FEF7B4FF08BD00002F
:10240000C402002070B5094D06464FF40074002246
:1024100021462846FEF77FFB304600F009F82146AA
:102420002846BDE870400122FEF775BB000402405B
:1024300001B501231A4669460148FEF793FF08BD1E
:10244000C40200200148FFF736B900007C030020D9
:10245000F0B502681D4B1E4C9F031E4D1E4E984248
:1024600007D0B84205D0A04203D0A84201D0B04264
:1024700004D122F0700C4A6842EA0C02984210D053
:10248000B8420ED0A0420CD0A8420AD0B04208D028
:10249000124CA04205D0124CA04202D0114CA042D6
:1024A00003D122F44074CA6822434C6922F08002AE
:1024B000224302608A68C2620A688262984201D13D
:1024C0000969016301214161F0BD00000000014084
:1024D0000004004000080040000C004000400140A3
:1024E0000044014000480140064C01264FF4FA65C3
:1024F000207810B9267000F007F828461EF0F8FE84
:10250000F6E700000400002010B51BF0F7FD0FF007
:10251000CBFE044600227F211AF0EAFF0D4810F09E
:1025200035F90146002220461AF0D0FF0022322160
:1025300020461BF01DF84FF0FF1010F027F9014660
:102540004FF4003220461AF0C1FF2046BDE810408B
:1025500017F0C6BC1C3EC400FEE700000FB4084BD9
:1025600010B504A902AA039801F092FD044602A93D
:10257000002001F037FE204610BC5DF814FB00007F
:10258000E54100080907090E002804DB00F1E020FE
:1025900080F80014704700F00F0000F1E02080F890
:1025A000141D704702E008C8121F08C1002AFAD1A2
:1025B00070477047002001E001C1121F002AFBD1C3
:1025C000704770B5044600256FF02F0608E02068BC
:1025D000411C2160007805EB850106EB410145189F
:1025E0002068007800F004F80028F0D1284670BD7B
:1025F0003038092801D801207047002070470000BA
:1026000010B54021074801F081F800221E2106483C
:102610001DF028FD054CA06002F076F90020207026
:1026200010BD000014510020B1490008BC01002079
:1026300070B5B1F90030B2F90040A34200DC234686
:102640000380B1F90250B2F90240A54200DD2C46E8
:102650004480B1F90460B2F90450AE4200DA354664
:102660008580B1F90610B2F90620914200DB1146CF
:10267000C1800120AB4201DC8C4200DD002070BD36
:10268000F8B50D460446B0F90000B1F90010164641
:10269000884247DBB4F90210B5F90220914241DBD0
:1026A000B4F90410B5F9042091423BDCB4F90610EA
:1026B000B5F90620914235DC96B3ADF8000060888C
:1026C000ADF8020032466946284600F099F8002825
:1026D00027D0A088ADF800006088ADF8020032462F
:1026E0006946284600F08CF800281AD02088ADF8FA
:1026F0000000E088ADF8020032466946284600F046
:102700007FF800280DD0A088ADF80000E088ADF873
:10271000020032466946284600F072F8002800D0D0
:102720000120F8BD0020F8BDB0F90020B1F9043057
:102730009A4213DCB0F90420B1F900309A420DDB63
:10274000B0F90220B1F906309A4207DCB0F9060070
:10275000B1F90210884201DB012070470020704768
:10276000F8B50D460446B0F90400B1F9001016465C
:10277000884243DBB4F90600B5F9021088423DDB1C
:10278000B4F90000B5F90410884237DCB4F902103E
:10279000B5F90620914231DC76B3ADF800006088CF
:1027A000ADF8020032466946284600F029F818BB09
:1027B000A088ADF800006088ADF802003246694696
:1027C000284600F01DF8B8B92088ADF80000E08870
:1027D000ADF8020032466946284600F011F858B9B3
:1027E000A088ADF80000E088ADF8020032466946E6
:1027F000284600F005F808B10020F8BD0120F8BD1A
:102800002DE9FC4114460E46B1F90020B0F9001044
:1028100005468A423ADBB5F90400824236DCB6F955
:102820000270B5F90220974230DBB5F906309F42BD
:102830002CDC002C75DD401A9A1A401C521C00B288
:1028400012B200EBD07002EBD272401052109042E4
:1028500000DB1046844200DD0446ADF800102888F5
:1028600000222044ADF804006888ADF802006888B2
:1028700031462044ADF806006846FFF7C1FF40B17D
:10288000BDF804002044ADF804003FE00020BDE89E
:10289000FC81E8880022001BADF80200E888ADF852
:1028A000060031466846FFF7ABFF28B1BDF80400CB
:1028B0002044ADF8040011E0A8880022001BADF808
:1028C0000000A888ADF8040031466846FFF798FF7D
:1028D00050B1BDF80000001BADF80000BDF80200CB
:1028E000001BADF8020016E06888ADF802006888A9
:1028F00000222044ADF8060031466846FFF780FF0D
:1029000070B1BDF80000001BADF80000BDF8060076
:102910002044ADF80600314668461AF0F5FEB6E7E9
:10292000FFE70120B3E710B5B1F90040B2F900307C
:102930009C4200DA23460380B1F90240B2F902302A
:102940009C4200DA23464380B1F90440B2F90430D6
:102950009C4200DD23468380B1F90610B2F90620BF
:10296000914200DC1146C18010BD0000FEB5074653
:102970001DF014FB0025354C0646009537B1F8686C
:10298000606038461DF03CFC606802E010F044FCDA
:10299000606000691AF054FE6068406908B11AF07E
:1029A0004FFE6068C0691AF04BFE6068006A1AF05A
:1029B00047FE60680169E1B31BF0E4F81BF060F8C2
:1029C0006068B0F8501199B30168097C890715D582
:1029D00010F080FC401E07B2606810F035FC401E0D
:1029E00003B20022114601A800970EF0CCFA6068ED
:1029F00001A90268926B516004F082FA60684FF49A
:102A00008071303016F022FC6068202100F598704B
:102A100016F01CFC6068A0F8505130461DF0B8FA62
:102A2000009060680068436A13B122680099984773
:102A300000E007E016F04CFA00F036F8BDE8FE4082
:102A400000F006B8A0F85051FEBD0000FC000020C8
:102A500070B50A4D002400BFC4EBC40655F826002B
:102A600008B116F0A9FA05EB86001C2116F0EEFB62
:102A7000641CE4B2042CEFD370BD0000F0510020C0
:102A8000084949680AE04A68824202D00A688242DC
:102A900003D10A7E42F001020A7649690029F2D187
:102AA00070470000D000002070470000042101485A
:102AB00000F02CBE085100201C21014800F026BE69
:102AC000205100202DE9FF5F0446DDE90E0613B911
:102AD000B0F5807F7ED0B6F900504FF0FF376D42E1
:102AE000454307EB25252DB22580B6F902C0CCF170
:102AF000000C0CFB00FC07EB2C273FB26780B6F9FB
:102B000000C0A1EB0C0141434FF0020C0CEB212162
:102B100009B2A180B6F90280A2EB080242430CEB95
:102B2000222000B2E080002B7ED04FF00A0A93FBF7
:102B3000FAF5684200EB800003EB400705F101095C
:102B400028B21DF09DFC00900FFA89F01DF098FC52
:102B500083465A3528B21DF093FC804609F15A008D
:102B600000B21DF08DFC0146009AC7F10A0000FB7F
:102B700002F300FB08F00BFB073301FB070193FB9B
:102B8000FAF291FBFAF04FEA601AB4F90010B4F9C6
:102B900002000AFB01FCCDF80CC05511378805FB7B
:102BA00010C207EBA2220FFA82F905FB01F2BB4625
:102BB000029277880AFB002107EBA1210BB2B4F93E
:102BC0000410BE460AFB01FC05FB10C20BEBA2225F
:102BD00016B200E02FE005FB01F7CDE9007CB4F967
:102BE0000680DDF80CC00AFB007005FB18C1DDF89B
:102BF00004C0009F05FB18C5029A0AFB087C0AFB6B
:102C000008220BEBA1210EEBAC270EEBA02009B2A2
:102C10000EEBA2220BEBA5250FFA87FC00B212B235
:102C20002DB24F46494500E00EE000DA0F46B542AE
:102C300016DAA84615E000202080491E6080A18099
:102C4000521EE280BDE8FF9F32882A4422807288AB
:102C50003A44628032881144A180718808444FE070
:102C6000B046474504DA4F46494506DA0F4604E0C8
:102C7000B54201DA2F4600E0374627804F464945E6
:102C800000DD0F46B54201DDA84600E0B0464745ED
:102C900003DD4D46494505DC01E0B54201DD29462D
:102CA00000E03146A1809A4201DA154600E01D4657
:102CB000844501DA614600E001468D4205DA9A4218
:102CC00001DA114606E0194604E0844501DA61465E
:102CD00000E0014661809A4201DD114600E019469C
:102CE000844501DD654600E00546A94205DD9A42BE
:102CF00001DD104604E0184602E0844500DD604630
:102D0000E0809FE72DE9FE4F0446D0F800B0B0F90F
:102D10000800E589081AB4F90A10511AD4E90932F1
:102D2000B5F5807F38D0A589ADB3A66B704345114A
:102D30004E437011266BE16A06FB05F701FB107725
:102D4000694306FB001003EBA72902EBA020804695
:102D50000612B4F904004FEA2927B8424EDD002FCD
:102D60004CDBB4F90610B14248DD002E46DB94F886
:102D700034104A0745D58A0704F1140322D400FB16
:102D8000067045004FF0020A0BEB0501524618464B
:102D900016F012FA27E00DE0256BE66A05FB00F756
:102DA00006FB1177464305FB016003EBA70902EB25
:102DB000A000CCE7A56B68434D4303EB601902EB21
:102DC0006510C4E700FB067000EB40054FF0030AF6
:102DD0000BEB05010222184616F0EEF9E81C5844E8
:102DE00010F8010CA07594F83400C0071FD04FF400
:102DF000FC60ADF80000A18A814218D10020BDE836
:102E0000FE8F32B204F118002369CDE901020025DA
:102E100039B2AA468B4613F03FFD0090BDF8000082
:102E2000A082DDE90102594613F0CEFCDAE7E07C2E
:102E300078B1A4F83C90A4F83E80A4F84070A4F8BF
:102E40004260656484F848A02046BDE8FE4F00F06B
:102E500002B80120D3E72DE9F04F044690F83C106A
:102E6000D0F8009090F83E0087B04FF0FF36702900
:102E700007DAB4F940203546012A00D50025803113
:102E80000DE0902916DDB4F94020B4F90430012595
:102E9000521C9A4200DB0025A1F27F114942C9B2BF
:102EA0008846702809DAB4F94210012900D50026B5
:102EB000803010E00025FF21F2E790280DDDB4F905
:102EC0004210B4F906200126491C914200DB00267D
:102ED000A0F27F104042C7B201E00026FF276069E0
:102EE0000090A07D0590002083468246049094F8CF
:102EF0003400400744D594F84810606C11FB05017C
:102F00004944022201A816F057F9A08894F8481005
:102F100010FB01F0616C022206FB0011494403A87A
:102F200016F04AF9A18894F8480011FB00F1626C90
:102F300006FB012210FB05901118022202A816F0D0
:102F40003BF994F83400800761D594F84800626C2E
:102F500010FB052300EB09010B4413F8013C04931B
:102F6000A38813FB00F306FB0322114411F801BCF4
:102F700010FB0500111801EB090010F8010C45E0E9
:102F8000B4F84000B4F94220284401B204F118001A
:102F90008146236913F080FC0190B4F84200B4F933
:102FA0004010304402B254F8103F484613F074FC0D
:102FB0000390608E2368304402B2208E284401B210
:102FC000484613F069FC029094F82400103C8007F6
:102FD0001DD5B4F9422034F8400F284401B24846C8
:102FE00013F0F2FB04906088B4F90010304402B290
:102FF000484613F0E9FB83466088304402B234F857
:103000004009284401B2484613F0DEFB824694F89A
:10301000340042464546800735D5059810FB08F335
:103020000499C8F1FF0011FB0031C1F307211BFB1C
:1030300008F61AFB0060C0F3072011FB07F3C7F185
:10304000FF0610FB06331B0AA375022907D80228C6
:1030500003D8002007B0BDE8F08F002702E0022867
:1030600000D8FF270598022800D8002204980228DB
:1030700000D8FF22BBF1020F00D80025BAF1020FE1
:1030800003D8FF2501E0FF20A075EAB1FF2A04D094
:10309000DDE900010FF09EFC0090BDB1FF2D17D0BF
:1030A000DDE902102A460FF095FC049097B1FF2F3E
:1030B00005D001463A4600980FF08CFC0090BDF810
:1030C0000000A0820120C5E70198E5E70298ECE73F
:1030D0000398EAE7BDF81000F3E700002DE9F04798
:1030E0000446B0F908000A2700026062B4F90A0039
:1030F0000002A062B4F90C1091FBF7F5684200EBF6
:10310000800001EB4006684205F1010800B21DF0A5
:10311000B7F98246E84300B21DF0B2F98146C5F125
:103120005A0000B21DF0ACF90546C8F15A0000B2D1
:103130001DF0A6F9C6F10A0101FB0AF3024609FBDC
:103140000630694390FBF7F002FB061191FBF7F1A3
:103150004011E06248112063A07C13F04AFC94F80F
:10316000341060F3000184F83410A07C13F031FCBB
:1031700094F8341060F3410184F83410A07C0428E2
:1031800024D0052822D0062820D021F0040100BF39
:1031900084F8341021682162A16921F0E00160F314
:1031A0000401A08860F39421E08860F35F51A1617D
:1031B000E0894FF4001101EB5001B1FBF0F0A06386
:1031C000FF20A075208AA082BDE8F08741F00401AD
:1031D000DEE700002DE9F04115460E460746114C8A
:1031E0001CF0DCFE80462B4632463946204613F062
:1031F00081FF20B10020A062E06950B110E02C21D5
:10320000204616F023F84FF00040A0620020BDE8F1
:10321000F08140461CF0BCFEE06108B90120E0618D
:103220002046F4E74451002010B51421074800F06F
:103230006DFA13F025FF40B1054901600549416071
:10324000054981600549C16010BDFEE72C51002091
:10325000AD6A0108296E0108A16F0108796A0108A9
:1032600070B50D4604461021284615F0EFFF206882
:103270000078012804D0022807D0042807D008E0ED
:10328000208A2880608A688003E0E06800E00A20E5
:10329000686020684268002A03D02946BDE8704073
:1032A000104770BDFEB5866A0446BEB9A08A218A61
:1032B0000844A082E08A618A0844E082204609F03E
:1032C000F2FF060079D020460CF044FA00220921D2
:1032D000304612F0BBFD607880076ED4208A10B9AA
:1032E000608A002869D00025ADF80450ADF8085078
:1032F00094F83C0000F00F000328304616D017F079
:1033000031FD0746304617F0E7FB03460C200090DE
:10331000B4F912103A46304609F07CFBADF80800CB
:10332000304617F02BFCC10712D017E017F0AEFCA7
:103330000746304617F04AFC024603200090B4F9D5
:1033400010103B46304609F065FBADF80400E7E796
:10335000BDF90410002901DDADF80450810705D442
:10336000BDF90410002901DAADF80450410705D475
:10337000BDF90810002901DDADF80850000705D49B
:10338000BDF90800002801DAADF8085002AA01A929
:1033900020461FF060FA0023BDF90820BDF9041093
:1033A000304619F0E5FCA08ABDF804100844A0825C
:1033B000E08ABDF808100844E082FEBD2DE9FC5FFC
:1033C0000446806A5FEA000B71D094F83C00000765
:1033D0006DD014F049F9019000684021457E5846AF
:1033E00018F06AFC4FF0000818B9A4F81A80A4F885
:1033F0001880584617F0A8FC8246584617F0ABFCD8
:10340000064694F83C004FF0640900F00F000C28C9
:1034100002D003284CD09AE0A4F8188056B1B4F931
:103420001A50002714F020F900684946407EC0F188
:10343000640022E0608BC5F1640110FB01F191FB97
:10344000F9F06083584617F047FB0546584617F0D9
:1034500089FC02460C200090B4F91A102B465846FD
:1034600009F0D8FA6083024600231EE07A1917B2E9
:1034700010FB05F292FBF1F215B2002DF6D1ADF87A
:103480000070A4F81A806A46002120461FF0E3F974
:1034900041F6FF72BDF90030514258460AF068F813
:1034A000BDF800100123084402B200214CE09AE06C
:1034B000A4F81A80BAF1000F0AD0B4F91850002706
:1034C00014F0D2F800684946407EC0F1640022E062
:1034D000208BC5F1640110FB01F191FBF9F0208311
:1034E000584617F073FB0546584617F0CFFB0346C6
:1034F00003200090B4F918102A46584609F08AFAB9
:103500002083014600231EE07A1917B210FB05F252
:1035100092FBF1F215B2002DF6D1ADF80070A4F8CF
:1035200018800022694620461FF095F941F6FF7287
:10353000BDF900305142584609F092FFBDF8001025
:103540000123084401B20022584619F011FC208BD7
:10355000002848D1608B002845D1C6B9584617F0DD
:1035600001FC0546584617F0B7FA002D06DC002886
:103570000DDD002D02DA01232A4604E0002806DAD8
:103580000123404202B20021584619F0F1FBBAF182
:10359000000F19D1584617F019FB0546584617F089
:1035A00075FB002D07DC00280EDD002D03DA01235A
:1035B0000022294605E0002806DA012300224042C5
:1035C00001B2584619F0D4FB0A215846019A12F06C
:1035D0003DFC6078800706D414F83C0F20F00F0003
:1035E000207044F8148CBDE8FC9F00007FB50E46A7
:1035F000040003D10FF010FE040023D00025FEB11B
:10360000ADF80050ADF802500FF01EFE401EADF8B0
:10361000040020460FF05EFE401EADF806006A462C
:10362000314602A8FFF704F800280BD02068017C7F
:10363000890708D5DDE90001C4E90C0101202AE071
:10364000A0F850517FBD82690AB102A990470026B7
:103650000BE000BF04EBC601002202A83031FFF7E7
:103660000FF80028EED1761CB6B2B4F85001B04283
:10367000F0D880B2202804D204EBC00002A9303078
:1036800004E0A4F8505104F1300069460DF0D2FB7B
:10369000B4F85001401CA4F8500160680028D1D053
:1036A0001CF0BAFD7FBD70B5054600F012F8044667
:1036B0000CE02146284600F01EF806462146284622
:1036C00000F071F8204615F077FC3446002CF0D15C
:1036D00070BD002800D04068704700B50346002246
:1036E000FFF7F7FF03E01846521C00F004F8010052
:1036F000F9D1104600BD0068091D405870470068A8
:1037000040587047002800D080687047002242600F
:10371000C91C21F0030182600160704770B5044646
:103720000068083015F0BEFB050013D001460022EA
:1037300020461DF04BFD2946204662681DF040FDE5
:10374000616819B12A4620461DF040FD6560A068F9
:1037500000B9A560284670BD70B504460068083001
:1037600015F0A0FB050013D00146002220461DF0F5
:1037700027FD29462046A2681DF028FDA16819B141
:103780002A4620461DF01CFDA560606800B96560F2
:10379000284670BD28B1416809B9806808B1002089
:1037A00070470120704770B504000DD0FFF791FFFE
:1037B00000228842204608D1FFF79DFF6060011E6D
:1037C00001D000221EE0A26070BDFFF79BFF88427F
:1037D000206808440AD10168A16029B12046BDE8EB
:1037E000704000221DF0ECBC626070BD0568204690
:1037F000FFF781FF06460246294620461DF0E0FC01
:103800002A4631462046BDE870401DF0DFBC10B5A9
:103810000446006882680AB1214690472068006823
:10382000002801D02060F5E710BD8068002801D095
:10383000B0F91600704700002DE9F047074690B038
:10384000408C189E40F00400788490463A84994653
:103850008A463289384618F09BF80546A7F820902A
:1038600032895146384618F093F80446788CA542C0
:1038700020F00400788403D12904B1EB044F68D010
:10388000A7F8208032895146384618F081F805465D
:103890008046A7F82090514638460BF037F831891A
:1038A00000682A461BF0F0FA3089602823D147F6D9
:1038B000FF794D4501D04C451DD1384618F0B3F97C
:1038C00000EBD0704510384618F0ADF900EBD07021
:1038D0004010C84506D1691C431C994200DA00E03B
:1038E000194688464C4506D1691C421C914201DAB2
:1038F0006C1C00E014461948FFF710FF05002BD0A0
:103900002F60C5E903843089A8806846C5F808A0FF
:103910000CF0A8FD1248FF21CDE90050114802909B
:103920001148039000200790CDE9080130880A90E3
:1039300070889DF83E1040420B90F0680690002081
:1039400060F300018DF83E103069059068460CF078
:10395000FDFD10B0BDE8F087FEE700003851002003
:10396000895102087D530208D952020814210148E6
:10397000FFF7CCBE385100202DE9FC5F00259246B0
:103980008B4606462C46042743F60F0843F60E09DD
:1039900000E100BFF16807EBC400085882017DD444
:1039A00080B230EA0B0212D05FF0000230EA0A0067
:1039B0000FD00020824271D051F8340001AA41F6A4
:1039C000100100901BF046F8002868D103E00122A6
:1039D000ECE70120EEE701AA41F6110100981BF087
:1039E00039F8002873D101AA41F6120100981BF0A2
:1039F00031F800286BD101AA41F6130100981BF0A1
:103A000029F8002863D101AA41F6150100981BF09E
:103A100021F800285BD101AA41F6140100981BF09F
:103A200019F8E0BB01AA41F2690100981BF012F8F5
:103A3000A8BB01AA43F20C0100981BF00BF870BB65
:103A400001AA43F20D0100981BF004F838BB01AA4B
:103A500041F2010100981AF0FDFF00BB01AA41F2FA
:103A6000040100981AF0F6FFC8B901AA41F2020158
:103A700000981AF0EFFF90B901AA41F203010098F3
:103A80001AF0E8FF58B901AA41F2050100981AF0AE
:103A9000E1FF20B901AA41F2060101E079E016E058
:103AA00000981AF0D7FF90B901AA41F232010098AC
:103AB0001AF0D0FF58B901AA414600981AF0CAFF7F
:103AC00028B901AA494600981AF0C4FF10B1032092
:103AD000BDE8FC9F01AA40F60A0100981AF0BAFF5F
:103AE000F0BB01AA40F60B0100981AF0B3FFB8BB77
:103AF00001AA414600981AF0ADFF88BB01AA4946C9
:103B000000981AF0A7FF58BB01AA40F63C010098A4
:103B10001AF0A0FF20BB01AA40F63D0100981AF060
:103B200099FFE8B901AA40F63A0100981AF092FF0D
:103B3000B0B901AA4FF4046100981AF08BFF78B96C
:103B400001AA40F6450100981AF084FF40B901AA85
:103B500040F6410100981AF07DFF08B901AA00E083
:103B600013E040F6420100981AF074FF68B901AA08
:103B700040F6430100981AF06DFF30B901AA40F6F3
:103B8000490100981AF066FF08B1022501E005B965
:103B90000125641C708CC0F3C500A0423FF6FAAE4C
:103BA000284695E70148406870470000FC00002067
:103BB0007047C0F30410072800D9072070470000A1
:103BC00010B518210348FFF7A1FD03490120087033
:103BD00010BD0000E4500020E80100202DE9F04174
:103BE00090460C46050015D0FCF7B5FB0A4F06467B
:103BF0002146BA68284690470446BA6828194146C3
:103C000090470146701A03E06218AA5C2A55641CAA
:103C1000A042F9D2BDE8F081FC0100202DE9F0417D
:103C2000094D90460E466A681C460746194690475D
:103C3000306020B120686A68384400219047C8F895
:103C40000000BDE8F0810000FC0100202DE9F04FEC
:103C500087B08A46DDE910581F4693460446002186
:103C600005B129805CB12078002809D0BAF1000F95
:103C700005D0002618F0060F15D0002004E0002023
:103C800007B0BDE8F08F401C215C0A2904D00D2943
:103C900002D00029F7D100E0401C002DF0D04FF0F9
:103CA000FF312980ECE75FEA887001D541F6FF77A4
:103CB000894608468DF81410049127E00498CDF841
:103CC000189068B34FF0000C05AA06ABCDF80CC0F5
:103CD000CDF80080CDE9013220443B465A4651469A
:103CE0001CF0F8FB06997A1A314417B20EB288B16B
:103CF00004990144049120780A280BD00D2809D09A
:103D0000605C0A280FD00D280DD00846205C08B151
:103D1000002FD3DC049848B105B12E800498AFE79A
:103D20004FF0010CD0E7481C0490F3E7064A04A9C1
:103D3000204652689047002DF0D0014600225046A0
:103D400012F05FF906B2E8E7FC0100202DE9F0412E
:103D50001746884606001ED0002F1CD0FCF7FBFA41
:103D600004463846FCF7F7FA050014D00B4A2C44F9
:103D70004146926830469047411903E0621BB25CAD
:103D80003255641EA142F9D930442A463946BDE86D
:103D9000F04115F01DBABDE8F0810000FC010020E3
:103DA00000230278232902D0012A0DD00FE02AB186
:103DB0000021012A04D0022A04D008E0012101E0F8
:103DC000017004E0017001E0202902D001231846AF
:103DD00070470221F6E72DE9F0410E468046024683
:103DE0000021334608461CF0B1FD04460027401C64
:103DF00015F058F8050008D02F5533464246611C8F
:103E00001CF0A4FD2846BDE8F081FEE72DE9F0474F
:103E10001E4614460D468246DDF8209015E000BF90
:103E20004FEA540808FB0657394650464A46904721
:103E3000002808DD44F30000C0EB540407EB06053E
:103E4000A4F1010401E005DA4446002CE8D1204643
:103E5000BDE8F0873846FBE72DE9FC5F9B460CABDD
:103E60008A468146DDE9116093E81210DDE90F57BB
:103E70005FEA80784FF030031AD45EB15FEAC07811
:103E800008D000F00C0858EA0C0803D0761E01E0B8
:103E90000B55641CBC4204D2202CF9D301E00B5515
:103EA000641C5FEAC07803D0B44201D2202CF6D360
:103EB0005FEAC06825D55FEA40580AD44CB1BC42DD
:103EC00001D0B44205D1641E03D0102D03D1641E6D
:103ED00004E0102D02D0022D0AD00EE0850603D496
:103EE000202C1ED2782506E0202C1AD2582502E07C
:103EF000202C16D262250D55641C202C11D20B5596
:103F0000641C202C0DD2BCF1000F01D02D2306E043
:103F1000430701D52B2302E0030702D520230B55CD
:103F2000641CCDE900BAC846154681468B46AA46B0
:103F3000800714D1274607E02A46DDE900316D1CD1
:103F40002020C446E0477F1CB742F5D307E02A464D
:103F50006D1C641EDDE900311BF80400C047002C15
:103F6000F5D15FEA897006D409E02A46DDE900311F
:103F70006D1C2020C047A5EB0A00B042F5D32846AF
:103F8000BDE8FC9F2DE9F04F8FB099468B46DDE9E7
:103F90001818DDE91C63DDE91A47924686460022BF
:103FA00009B923F01003580507AD00D5C9B1B1FB1D
:103FB000F4F004FB1010C0B20A2801D2303009E03E
:103FC0005FEA836C02D54FF0410C01E04FF0610CC9
:103FD00060440A38B1FBF4F1A854521C09B1202AFC
:103FE000E5D3CDF80880CDE90563CDE90052CDE9F0
:103FF00003474B46524659467046FFF72DFF0FB018
:10400000BDE8F08F2DE9FF4F8FB01CACDDE92395A3
:1040100094E8030820AC94E8C004002450EA0102AC
:1040200001D125F010056A050DF11C0802D550EAF2
:10403000010217D032463B46FCF72AF9D2B20A2ACF
:1040400001D2303206E0AB0601D5412300E0612306
:104050001A440A3A08F80420641C50EA010201D00C
:10406000202CE7D3CDE90084CDF808B0CDE9059543
:10407000CDE9036A0FAF97E80F00FFF7EDFE13B02D
:10408000BDE8F08F9A4200D2885470477047000014
:104090002DE9FF4F89B09B460446002506E0252800
:1040A0000BD05A460B999047641C6D1C2078002851
:1040B000F5D10DB02846BDE8F08F0027B8460122A3
:1040C000474900E0074314F8013F203B02FA03F0A0
:1040D0000842F7D120782E2819D114F8010F47F0A3
:1040E00004072A280ED06FF02F022078A0F13001AB
:1040F00009290CD808EB880102EB410100EB01080B
:10410000641CF2E70A98641C50F8048B0A9020782B
:104110000028CED0642808D0692806D075281ED083
:104120005A460B9990476D1C58E00A994FF00A09BE
:1041300001C90A91002802DA40422D2102E0390526
:1041400004D52B218DF82010012103E0F90704D0BC
:104150002021F7E78A4608AE0DE00021FAE70A9928
:104160004FF00A0901C90A91F7E74946FCF711F92E
:10417000303106F8011D0028F7D1ADEB060000F143
:104180002009780701D44FF00108C84502DDA8EBEB
:10419000090000E000208046002706E008A85A46F3
:1041A000C05D0B9990476D1C7F1C5745F6DB04E002
:1041B00030205A460B9990476D1CB8F10001A8F1C8
:1041C0000108F5DC05E016F8010B5A460B999047FB
:1041D0006D1CB9F10001A9F10109F4DC641C65E76B
:1041E000092801000A68531C0B601070704700001A
:1041F0002DE9FF4F89B005460A9800249246002811
:1042000000D1FE4D8FE1252804D02246641C534680
:104210000A990BE2491C4FF0000808460C910178FE
:104220002B2919D004DC202919D0232904D119E025
:104230002D290ED0302909D00026C8B2FEF7D8F9B2
:10424000B0B10CA8FEF7BDF906461FE048F0010129
:104250000AE048F0020107E048F0040104E048F0F9
:10426000080101E048F01001401C88460C90D6E798
:104270000C9908782A2809D1169840C81690002E63
:1042800002DA48F002087642491C0C910C984FF073
:10429000000B01782E2919D1401C0C9048F480683D
:1042A0000078FEF7A5F920B10CA8FEF78AF983463D
:1042B0000CE00C9A10782A2808D1169802C816909B
:1042C000002900DC0021521C8B460C920C980178CE
:1042D0006C290AD004DC68290FD06A2919D128E09A
:1042E000742929D07A2914D126E0401C0C90017839
:1042F00048F480786C291CD00BE0401C0C900178AD
:1043000048F08008682904D148F04001401C8846E4
:104310000C9002460078692822D015DC62281FD054
:104320000DDC252871D050281AD058287FF46DAFA5
:1043300016E048F40071E9E748F48071E6E7632885
:1043400078D06428F2D10BE0732874D004DC6F2895
:1043500006D07028EAD103E0752801D07828E5D18D
:1043600078280DD058280BD070280BD0502809D0B1
:104370006F2816D0622816D00A2128F0100016E007
:10438000102107E05078102148F48878562804D18D
:10439000521C0C921078582807D01078502804D05E
:1043A00006E0082109E0022107E048F020008046ED
:1043B0001078692803D0642801D028F00C085FEA3F
:1043C000485001D528F00108107869281ED06428CB
:1043D0001CD0562864D05FEA885072D5169804AB7A
:1043E000C01D002283E806080292CDE9076820F08C
:1043F00007005346F0E80212CDE90012169022465B
:1044000028460A99FFF7FEFD89E00AE15FEA885035
:1044100024D5169804AFC01D20F00703F3E802026C
:104420001693002387E80A08CDE90768002A03DA13
:10443000012102E080E0A6E000210023029119465C
:104440001B1A914101DA114603E00021404261EB61
:10445000020153462246CDE90001D1E75FEAC85088
:1044600004D5169804C80FE0524215E05FEA486090
:1044700003D5169810F8042B06E05FEA0860F0D523
:10448000169830F8042B12B21690CDE9021BCDE934
:104490000468D00F002AE7DDCDE9002053461EE076
:1044A0001698AAEB040202C81690486800680090AB
:1044B0000A980B6801192846FFF79AFE04442FE07A
:1044C000FFE75FEAC8500CD5CDE9021BCDE90468CF
:1044D00016980021534604C8CDE9002116902246C3
:1044E00019E05FEA486003D5169810F8042B08E03D
:1044F0005FEA0860169803D530F8042B92B200E00A
:1045000004C816900020CDE90020CDE9021BCDE9BA
:1045100004685346224628460A99FFF733FD0446AD
:104520000C98401C0C900C99087800287FF46BAE16
:1045300054457DD222467DE001275FEA887006D58A
:1045400009E02246641C534620200A99A8473846B1
:104550007F1CB042F5D316992246641C11F8040B57
:10456000169153460A99A8475FEA887006D4D7E7A0
:104570002246641C534620200A99A84738467F1CCF
:10458000B042F5D3CCE7169850F8049B16904B46F2
:10459000BBF1000001D0014601E04FF0FF31484679
:1045A00000E0401C02780AB1491EFAD2C71A5FEA3D
:1045B000485003D558465F4500D307465FEA8870E8
:1045C00006D512E02246641C534620200A99A847CB
:1045D00038467F1CB042F5D307E000BF224609F100
:1045E0000109641C53460A99A84799F8000040B194
:1045F0005FEA4851F2D5BBF1010B01E08D400008A4
:10460000ECD25FEA887006D48AE72246641C5346DF
:1046100020200A99A84738467F1CB042F5D37FE78F
:1046200006E02246641C534625200A99A84777E7EE
:10463000AAF10102534600200A99A8470DB020466E
:10464000BDE8F08F10B502004FF000000CD04B1EFB
:10465000194200D0FEE70A44521E9A43B2F5803F49
:1046600002D20C2A01D9104610BD0C2010BD0844FE
:104670004A1E401E9043114200D0FEE770470000E2
:104680002DE9F0410F4601210025044641862E46C2
:104690000BE01B49FBF766FE10B16D1CADB202E0EA
:1046A000608E401C6086761CB6B257F8260010B1AA
:1046B00001780029EDD1208EA8421ED0A06A0026E4
:1046C00010B114F079FCA662E06A10B114F074FC29
:1046D000E662E80014F0E6FBA06238B1680014F06E
:1046E000E1FBE06218B1A16A11B102E0FEE7FEE76A
:1046F0000025690014F0AAFD2586BDE8F0810000C0
:10470000101801082DE9F84F8146407A0F4600F055
:104710000700022819D010468046974200DD3A462D
:10472000164603202A4C2B4A00EB460020F00305D6
:10473000A06811681035411A636805EB010C9C45AF
:1047400005D2416821F0004124E00846E4E79D429B
:1047500019D892464FF0FF3B48196168884210D93A
:10476000002269461C48CDF800B00BF0ABFB0022DC
:1047700069461A480BF0A6FBA168DAF80000091A8E
:10478000EAE7A068DDE7284614F08CFBC0B1416879
:1047900041F0004188EA6702416089EA0201016054
:1047A000416801F04041491C31F0804141608681FF
:1047B000A0F80E8005D500F110018160BDE8F88FEA
:1047C000FEE7A16801F1100229448260A160F5E7CB
:1047D00018020020D801002095D2000825FF00080B
:1047E00070B586B000228DF808208DF80C208DF869
:1047F0001020444C90F83C20142302F00302A578CA
:104800004FF4B476012A23D0022A5FD0AA4211D0F5
:1048100010F8265F05EB051505EB4505B5FBF3F52F
:104820002570407800EB001000EB4000B0FBF3F087
:104830006070A27004AA03A8CDE9000201EB410058
:104840004FF6FF7101EA400002AB627821781AE06E
:10485000AA4210D0858C05EB45056D02B5FBF6F537
:10486000A58090F8270000EB001000EB4000B0FBA3
:10487000F3F06070A27004AA03A8CDE90002C9B2E7
:1048800002AB62783CE008F017FA9DF810209DF822
:104890000C10D308BDF800209DF8080063F3040253
:1048A000ADF800208A08BDF8001062F34A11ADF897
:1048B0000010C108BDF8000061F3CF20ADF8000082
:1048C00080B20090BDF8000006B070BDAA4210D0C2
:1048D000858C05EB45056D02B5FBF6F5A58090F8D6
:1048E000260000EB001000EB4000B0FBF3F020705E
:1048F000A27004AA03A8CDE90002CAB2217802ABD3
:10490000A088C0E75802002010B5084C0120207094
:104910000748FEF7DEFE0028A06803D0BDE810407F
:104920001BF07ABCBDE810401BF06ABCBC01002043
:104930001451002010B5044690F83E00626B8107C8
:1049400007D4A18F39B1A1F57F43FF3B15D0491E94
:10495000A187A18F89B90AB181070ED521461348D5
:10496000FEF721FFFFF7D0FFE16809B12046884735
:104970002046BDE8104014F01FBBA16B4942E16224
:10498000002A11D0810702D4216B4942E162411013
:10499000491C61F3410084F83E00616AE069E1610D
:1049A0006062A06AA262606310BD00001451002022
:1049B00070B5304D68681BF0EBFA0646687880F0F9
:1049C0000100687047E00020287094F83E00697884
:1049D000C0F380028A4242D061F3820084F83E0034
:1049E000E16A8A19030719D4002917DC002A15DBAC
:1049F000C00709D1216939B120468847E1690144DE
:104A0000E161616A08446062A16809B12046884793
:104A100094F83E0040F0080084F83E00E06A8019F7
:104A2000E06216D4A16A884200DDE162A1692046F5
:104A300088470146206A884204D0216262680AB130
:104A400020689047D4E90A01814202DB2046FFF743
:104A500071FF287818B10848FEF73BFE03E02146B5
:104A60000548FEF748FE0400ADD11BF097FA6860D8
:104A700070BD0000BC0100201451002070B5044638
:104A800040680D4608B1FFF7F9FF2268002A04D0FC
:104A900029462046BDE87040104770BD89B20CF031
:104AA0002EB989B20CF067B910B504464068820887
:104AB0000AD0496821F00301091D084460602046BE
:104AC00000F042F8204610BDFEE74068103120F0AB
:104AD0000300884201D301207047002070472DE970
:104AE000FC47054648680C4620F0030001AA6946C9
:104AF0001CF00EFADDE9007005EBC71101EB80092F
:104B00008046D9F83C0060B164B1C4E9020504F103
:104B10000806C46030460421FFF7A9FD864202D092
:104B2000FEE7FEE7FEE7C9F83C400120296900FAEC
:104B300007F21143296105EB870100FA08F04A6981
:104B400002434A61BDE8FC8710B5044600F087F8CF
:104B5000046010BD2DE9FC4706464FF000000D0033
:104B600000900746019042D00C46E9460DF104083A
:104B7000802907D3084620F0DCFA411F0120884035
:104B8000401E04444246494620461CF0C1F9009CA0
:104B90000A2C2CDA06EB8400019A40694FF0FF31B1
:104BA00001FA02F210400CD1641C3069A1400840A7
:104BB0001DD020F0B6FA0446009006EB8000406954
:104BC00078B120F0AEFA034606EBC411019001EB78
:104BD0008000C76B5FB1786820F00300A84201D263
:104BE000FEE7FEE739463046009A1DF06FFC384676
:104BF000BDE8FC8710B50446FFF7A6FF416841F009
:104C000002014160606840F00100606010BD10B5B5
:104C1000044600F024F8416821F002014160606818
:104C200020F00100606010BD70B506460D460846D4
:104C300000F015F8040010D02079C0070BD0686888
:104C400080080BD02146304600F03CF8214628462B
:104C5000FFF72AFF0546284670BDFEE7FEE74268DB
:104C600000F1080122F00300001F0844910800D160
:104C7000FEE7704770B506460C004FF000001ED0EE
:104C8000F2B120791546C0071BD011462046FFF728
:104C90001CFF78B12946204600F025F8054620463D
:104CA000FFF752FF6868294640F00200686030460E
:104CB000FFF715FF2046FFF7AAFF04F1080070BDBB
:104CC000FEE7FEE77CB5054648680C4620F0030089
:104CD00001AA69461CF01CF9DDE90023214628469B
:104CE0001DF0F4FB7CBD2DE9F0410D46044600F1BA
:104CF0000801281F0E18606806F1080720F003005D
:104D0000401BA0F1040838460421FFF7B0FC87429D
:104D100000D0FEE7606820F0030108EB0500001DED
:104D2000814200D0FEE7307900F0030040EA08003D
:104D3000706020F003000C2800D2FEE7207900F01C
:104D40000300284360603046FFF754FF3046BDE85B
:104D5000F08138B5044612F087FC054612F0B9FC24
:104D60000028204605D0218FE18617F073FA012034
:104D700038BD10F031FE002820461ED010F001FD95
:104D8000218FE08E81420CD02087E08E00906A4611
:104D90001C21204611F05AF80128E9D1204617F0CD
:104DA00059FA284612F0A1FC0428E0D1204615F05B
:104DB00041FE002111F0E7FCD9E710F069FED6E7CB
:104DC00070B511F03EF8054615F07AFE0446284607
:104DD0000CF0C8FD01462046BDE8704001221AF0E3
:104DE00003BC00002DE9F04F0D4687B004460021BA
:104DF00015F055FD60B32946204600F061FA2946BA
:104E0000204600F06FF80021204616F08DFC05903A
:104E10000021204616F053FD04900021204616F094
:104E20004FFB012800D0002080460021204616F0CC
:104E3000DEFE07460021204616F0B2FB42F2D17991
:104E400006464F450BD1608C400508D4012707E08A
:104E500007B02846BDE8F04F1C2114F0F7B9002731
:104E6000204615F09AFDDFF878A083462046002101
:104E7000BAF8022016F08CFDD5F810C0AB6829688E
:104E8000CDF800C0CDF80C80CDE90131C2B2394671
:104E90005846059B09F0ACFD28834E4504D1608C33
:104EA000800501D4012600E00026204615F05BFDB8
:104EB000074620460021BAF8062016F069FDC2B266
:104EC000686900246B68E9688DE81B003146384644
:104ED000049B09F08DFD688307B0BDE8F08F0000EA
:104EE000400200202DE9F34F81B00C46019808F0F4
:104EF000EDFF0646019815F050FD8246304600F061
:104F00000BFF2061400013F0F9FF20602069400092
:104F100013F0F4FF002541F69A79A0603AE036F9E3
:104F20001510DFF82081494533D10027DFF818B18B
:104F30001FE03946019815F0B2FC5946009016F072
:104F4000C2FEA8B9009808F0D3FF012810D100983C
:104F500008F0C4FFA8420BD1009816F064FE414649
:104F6000404501DA084602E0009816F05CFE8046F3
:104F70007F1C019815F0A5FCB842DAD8B8F1000FF3
:104F800003DBA16821F8158003E0A168002021F867
:104F900015006D1C2069A842C1D800252F4628465F
:104FA00041F69B784B4615E036F91010414504DB7D
:104FB0000D44A5F5F8559B3D0BE0994204D1A1683D
:104FC00031F81010394403E0A26822F81010394477
:104FD0000FB2401C21698142E6D80021019816F0E9
:104FE000A3FB2169C1F1010200FB02A0C01B00B2BA
:104FF000002800DA002000224FF0FF331146C4469B
:1050000011E000BF36F9117067450BDBA7F5F857C3
:105010009B3F3AB210FB02F3B3FBF5F3A76827F806
:1050200011300B46491C27698F42EBD8002B07DB58
:10503000A91A4143B1FBF5F1401AA16821F8130008
:10504000BDE8FE8F01E0FFFF010006002DE9F14FF2
:1050500000221146009817F0C9FF0021009816F0B1
:1050600055FA04460021009816F037FC20440FFA48
:1050700080F90021009816F0F5FA20440FFA80F824
:10508000009816F0B5F900EB090101EB0800DFF814
:1050900098A006B25446009815F013FC0746002568
:1050A0002AE0009821498068006850F8250083466E
:1050B00016F009FEF8B9584617F02EF940BB00214A
:1050C000584616F0BAF918B3012821D002281FD08B
:1050D00003281DD00021584616F09EFD58B9BBF894
:1050E0001A10BBF81600081A401C00B24844A0422F
:1050F00000DB044624B26D1CBD42D2D3544504D01B
:1051000004EB080000B2B04200DC3046BDE8F88F86
:105110000098BBF91A10B0F91600081A411CA142F8
:10512000E8DB0C46E6E7000001E0FFFF01000400B9
:105130002DE9F84F00228046114617F041FF00216B
:10514000404616F0E3F904460021404616F05CFBA9
:1051500020440FFA80FA0021404616F0FAFA204463
:105160000FFA80F9404616F051F900EB090101EB06
:105170000A00DFF844B105B25C46404615F0A1FBD9
:1051800007460021404616F078F901284FF0000646
:1051900044D078E0D8F808004849006850F8260064
:1051A000009016F090FDC0BB009817F0B5F850B114
:1051B0000098B8F91810B0F91400091A481CA04258
:1051C0002ADB4C1C28E00021009816F036F958B173
:1051D000032809D0062807D0082805D00021009808
:1051E00016F013FD58B118E00098B8F91810B0F98E
:1051F0001400081A411CA1420EDB0C460CE000987A
:10520000143000900BF087FE5044A04204DB00985D
:105210000BF081FE00EB0A0424B2761CBE42B9D327
:105220005C453BD004EB090033E000BFD8F8080030
:105230002249006850F82600009016F044FD08BB93
:10524000009817F069F860BB0021009816F0F5F897
:1052500038B3012825D0042823D0072821D00021E5
:10526000009816F0D9FC68B90098143000900BF043
:1052700052FE4844A04204DB00980BF04CFE00EBC9
:10528000090424B2761CBE42D0D35C4506D004EBA0
:105290000A0000B2584501D0A84200DC2846BDE80B
:1052A000F88F0098B0F91810B8F91400091A481CC2
:1052B000A042E6DB4C1CE4E701E0FFFF0100040034
:1052C0002DE9F84F0C46834609F01EFA064600F019
:1052D00023FD6061400013F011FE606060694000D2
:1052E00013F00CFE002541F69A79E0603AE036F9B9
:1052F0001500DFF80C81484533D10027DFF804A101
:105300001FE03946584615F0CAFA5146009016F08B
:10531000DAFCA8B9009809F07DFA012810D10098AC
:1053200009F06EFAA8420BD1009815F088FB4146AF
:10533000404501DA084602E0009815F080FB8046FF
:105340007F1C584615F0BDFAB842DAD8B8F1000F04
:1053500003DBE16821F8158003E0E168002021F813
:1053600015006D1C6069A842C1D800273D4638462B
:1053700041F69B784A4615E036F91010414504DBAA
:105380000F44A7F5F8579B3F0BE0914204D1E16829
:1053900031F81010294403E0E36823F81010294481
:1053A0000DB2401C61698142E6D80021584616F0D2
:1053B00086FA8146584615F0D6FA01466069C0F172
:1053C000010209FB0210401B02B2002A00DA00228F
:1053D000002043460FE000BF36F91010994209DB68
:1053E000A1F5F8519B3912FB01F1B1FBF7F1E5682A
:1053F00025F81010401C61698142EDD8BDE8F88F96
:1054000001E0FFFF010006001CB50B88048923445E
:10541000ADF800304B8844892344ADF802308B88C6
:1054200004892344ADF80430C98843891944ADF890
:1054300006104369694698471CBD0000F8B50D4643
:10544000D0E90C2104468AB112787AB141B100BF8B
:105450001AF0CBFB0D4909688847616B884211D26D
:10546000206B88B100200A4E009006E061B1EFE7A2
:10547000326869469047A84206D0206B0099415C8B
:105480000029F5D10020F8BD0120F8BD140200204C
:10549000000200202DE9FF4F87B0C878189CC00794
:1054A0000D46002801D0F14800E0F148069001D0F7
:1054B000F04800E0F048049001D1EE4800E0EE48EA
:1054C0004FF0100A4FF00C0ECDF814006088A18840
:1054D0004FF0000BA0EB010001B25A465846276975
:1054E00012E000BF00EB8006E3680AEB860C13F8BD
:1054F0000CC05FEACC7C0BD04FF0080C0CEB86069E
:105500009B5BC91A09B2401C8742EBD8002347E0D5
:105510000EEB86069B5B1A4412B2F4E703EB83069C
:10552000E7680AEB86000190385CC00737D191FB31
:10553000F2F00EEB860CCDF800C037F80CC00CFB77
:1055400000FC0FFA8CF94FF0060C04200CEB860CD3
:1055500000EB860037F90C80385ECC46C84500DC8D
:10556000C446604504DC4046CC46C84500DD604684
:10557000484506D0DDF804804FF0010CE34647F8BB
:1055800008C0D4F80CC0082707EB86062CF80600E4
:10559000E768009EBE5B921B081A12B201B25B1C48
:1055A00020699842BAD8BBF1000F8FD1002107982B
:1055B00015F07FFF012826D000270020ADF8080055
:1055C000ADF80C0003A902A8CDE900012089B4F9C7
:1055D000022003B2287816991BF037FFE87838428A
:1055E00007D0079815F0D9F9BDF808100844ADF8B0
:1055F00008000999079815F052F906464FF4FA6821
:105600004FF0640B27E10127D7E79C49304616F09D
:105610005AFB00287DD10021304615F0A9FFE8B3E0
:105620004FF000094846216911E000BFE26800EB35
:10563000800352F82320B24208D100EB8002E168D7
:10564000082000EB820031F9009002E0401C81420A
:10565000ECD8E878C007708C02D040F4806001E09C
:1056600040F40070708406F1140004998246884763
:10567000484528D0304616F0EDFDB08AADF8000060
:10568000F08AADF80200308BADF80400708BADF8F5
:105690000600069A49465046904700E00FE06A46E9
:1056A0002921304610F0D2FB304615F009FA324677
:1056B000222110F0CBFB304616F0CCFD03E0708CBD
:1056C00020F4C0607084002000906878012810D019
:1056D000022816D1059906F114008847B4F9001084
:1056E000491C21F00101081A00EBD07040F34F0073
:1056F00006E0059906F1140088472188081A00B2CF
:105700000090E87838420AD0049906F114008847DE
:1057100000E098E0BDF80810081AADF8080030461F
:10572000002143F20C0216F033F90FFA80F93046EB
:10573000002143F20D0216F02BF90FFA80FA3046E1
:1057400016F071FA0190304615F079F90146C9F367
:10575000413001280ED129F4C04040450ADCB0F5A3
:105760007A7F01DDC0F57A70019A504390FBFBF01F
:105770000FFA80F9CAF3413001280DD12AF4C04054
:10578000404509DCB0F57A7F01DDC0F57A70484309
:1057900090FBFBF00FFA80FAB18A1498F28A411A52
:1057A00001EB0900159900B28A1A02EB0A01EA78A6
:1057B00009B2D207002A02D0BDF9082000E0009A01
:1057C00010440FFA80FA01D0009801E0BDF90800FA
:1057D00008440FFA80F95AEA09001BD0304616F047
:1057E00039FDB18A01EB0A00B082318B01EB0A006E
:1057F0003083F18A01EB0900F082718B01EB090023
:105800007083304616F026FD01234A465146304645
:1058100016F0D0FDE87838420CD1049906F1140056
:10582000884717990844BDF80C100844BDF80810C3
:10583000084406E0BDF80C1017980844BDF808109D
:10584000081AADF80800E87809AAC0F380010798A3
:1058500008F026FE0646002E04D0DDE90901884244
:105860007FF4D3AE0BB0BDE8F08F00009F0F0108AE
:10587000950F0108470F0108EF0E0108010006000F
:105880002DE9F04F91B00E0005463FD02E832868D9
:1058900008B113F091FB06EB4600062101EB400036
:1058A00013F000FB286040B3022101EB46010144E4
:1058B000E960042101EB86010144C5E901010121F0
:1058C0000024012E1AD0F000083013F017FB814697
:1058D00000EB860000F10408B00000B2A346ADF86A
:1058E0001000C0F101028010ADF812B00FFA82FA78
:1058F0005C46CDF828B00690ABE0FEE7B42202701B
:10590000E8680480E8684180A868048011B0BDE8B8
:10591000F08F0027BDF81220BAF1000F07DC032139
:1059200001EB42010AEB01000FFA80FA0CE0BDF82E
:1059300010100523521A03EB420202EB0A00491E23
:105940000FFA80FAADF81010BDF81200401CADF847
:10595000120004A800F0E9F868B1BDF9100006A92A
:10596000821041F827200AA900F0030041F827001F
:105970007F1C042FCEDB042F71D109990698884231
:1059800012D129F8140028F814B0DDE90A01014405
:10599000DDE90C2010440844696808556968000175
:1059A0000855641C24B252E00799884219D029F89E
:1059B000140028F814B06A680A9810556A68000143
:1059C0001055641C069A20B2521E29F8102028F89F
:1059D00010B0DDE90B120A440D99091D11446A68E3
:1059E0002FE0089929F81400884228F814B0DDE95E
:1059F0000A025946104412D06A6810556A680001BC
:105A00001055641C069A20B2521E29F8102028F85E
:105A10001010DDE90C12114408316A6811E00C9A8B
:105A200010446A6810556A6800011055641C069A93
:105A300020B2521E29F8102028F810100D996A681B
:105A40000C3111546A6809011154401C04B20BF165
:105A5000010B04A800F069F800287FF45AAF40F267
:105A6000D32016FB00F109EB4402881232F9022C14
:105A7000824205D108EB440232F9022C82421AD04C
:105A8000A1EB8021B1F5007F03DC494341F3CF3125
:105A900006E0C1F58061494341F3CF31C1F10F0107
:105AA00029F8140028F8140068680155686809018D
:105AB0000155641C24B2A01E0EE000BF38F810206F
:105AC00029F8142039F8102028F8142069680A5C95
:105AD0000A55641C24B2401E0028EFDAEA6800214F
